{"project/contracts/BillSplit.sol":{"BillSplit":{"abi":[{"inputs":[],"name":"AlreadySettled","type":"error"},{"inputs":[],"name":"IncorrectPayment","type":"error"},{"inputs":[],"name":"InvalidBill","type":"error"},{"inputs":[],"name":"InvalidDeadline","type":"error"},{"inputs":[],"name":"InvalidShares","type":"error"},{"inputs":[],"name":"InvalidSlot","type":"error"},{"inputs":[],"name":"NotOwner","type":"error"},{"inputs":[],"name":"SettleNotReady","type":"error"},{"inputs":[],"name":"SlotAlreadyPaid","type":"error"},{"anonymous":false,"inputs":[{"indexed":true,"internalType":"uint256","name":"billId","type":"uint256"},{"indexed":true,"internalType":"address","name":"owner","type":"address"},{"indexed":false,"internalType":"uint256","name":"totalAmount","type":"uint256"},{"indexed":false,"internalType":"uint64","name":"deadline","type":"uint64"},{"indexed":false,"internalType":"string","name":"currency","type":"string"},{"indexed":false,"internalType":"uint16","name":"payerCount","type":"uint16"}],"name":"BillCreated","type":"event"},{"anonymous":false,"inputs":[{"indexed":true,"internalType":"uint256","name":"billId","type":"uint256"},{"indexed":true,"internalType":"uint16","name":"slot","type":"uint16"},{"indexed":true,"internalType":"address","name":"payer","type":"address"},{"indexed":false,"internalType":"uint256","name":"amount","type":"uint256"}],"name":"BillJoined","type":"event"},{"anonymous":false,"inputs":[{"indexed":true,"internalType":"uint256","name":"billId","type":"uint256"},{"indexed":true,"internalType":"address","name":"owner","type":"address"},{"indexed":false,"internalType":"uint256","name":"amount","type":"uint256"}],"name":"BillSettled","type":"event"},{"inputs":[{"internalType":"uint256","name":"totalAmount","type":"uint256"},{"internalType":"uint16[]","name":"sharesBps","type":"uint16[]"},{"internalType":"uint64","name":"deadline","type":"uint64"},{"internalType":"string","name":"currency","type":"string"}],"name":"createBill","outputs":[{"internalType":"uint256","name":"billId","type":"uint256"}],"stateMutability":"nonpayable","type":"function"},{"inputs":[{"internalType":"uint256","name":"billId","type":"uint256"}],"name":"getBill","outputs":[{"internalType":"address","name":"owner","type":"address"},{"internalType":"uint256","name":"totalAmount","type":"uint256"},{"internalType":"uint64","name":"deadline","type":"uint64"},{"internalType":"string","name":"currency","type":"string"},{"internalType":"bool","name":"settled","type":"bool"},{"internalType":"uint16","name":"payerCount","type":"uint16"},{"internalType":"uint16","name":"paidCount","type":"uint16"},{"internalType":"uint256","name":"collectedAmount","type":"uint256"}],"stateMutability":"view","type":"function"},{"inputs":[{"internalType":"uint256","name":"billId","type":"uint256"}],"name":"getBillSlots","outputs":[{"internalType":"uint256[]","name":"sharesWei","type":"uint256[]"},{"internalType":"bool[]","name":"paid","type":"bool[]"}],"stateMutability":"view","type":"function"},{"inputs":[{"internalType":"uint256","name":"billId","type":"uint256"},{"internalType":"uint16","name":"slot","type":"uint16"}],"name":"joinBill","outputs":[],"stateMutability":"payable","type":"function"},{"inputs":[],"name":"nextBillId","outputs":[{"internalType":"uint256","name":"","type":"uint256"}],"stateMutability":"view","type":"function"},{"inputs":[{"internalType":"uint256","name":"billId","type":"uint256"}],"name":"settle","outputs":[],"stateMutability":"nonpayable","type":"function"}],"evm":{"bytecode":{"linkReferences":{},"object":"6080806040523460155761114d908161001a8239f35b5f80fdfe60806040526004361015610011575f80fd5b5f3560e01c80631b2028b414610c025780635fcf6e1914610be65780638df8280014610a60578063b1cd06e614610904578063c30520441461079a5763da33f3bb1461005b575f80fd5b34610796576020366003190112610796576004355f90815260016020526040902080546001600160a01b03161561078757600760068201910160405191828360208354928381520180935f5260205f20925f5b81811061076e5750506100c392500384611030565b604051808160208554928381520180955f5260205f20925f905b80601f830110610586576101f8945491818110610570575b818110610557575b81811061053e575b818110610525575b81811061050d575b8181106104f4575b8181106104db575b8181106104c2575b8181106104a9575b818110610490575b818110610477575b81811061045e575b818110610445575b81811061042c575b818110610413575b8181106103fa575b8181106103e1575b8181106103c8575b8181106103af575b818110610396575b81811061037d575b818110610364575b81811061034b575b818110610332575b818110610319575b818110610300575b8181106102e7575b8181106102ce575b8181106102b5575b81811061029c575b818110610283575b10610273575b5095949392950385611030565b604051938493604085019060408652518091526060850192905f5b81811061025a575050506020908483038286015251918281520191905f5b81811061023f575050500390f35b82511515845285945060209384019390920191600101610231565b8251855287965060209485019490920191600101610213565b60f81c151581526020015f6101eb565b92602060019160ff8560f01c16151581520193016101e5565b92602060019160ff8560e81c16151581520193016101dd565b92602060019160ff8560e01c16151581520193016101d5565b92602060019160ff8560d81c16151581520193016101cd565b92602060019160ff8560d01c16151581520193016101c5565b92602060019160ff8560c81c16151581520193016101bd565b92602060019160ff8560c01c16151581520193016101b5565b92602060019160ff8560b81c16151581520193016101ad565b92602060019160ff8560b01c16151581520193016101a5565b92602060019160ff8560a81c161515815201930161019d565b92602060019160ff8560a01c1615158152019301610195565b92602060019160ff8560981c161515815201930161018d565b92602060019160ff8560901c1615158152019301610185565b92602060019160ff8560881c161515815201930161017d565b92602060019160ff8560801c1615158152019301610175565b92602060019160ff8560781c161515815201930161016d565b92602060019160ff8560701c1615158152019301610165565b92602060019160ff8560681c161515815201930161015d565b92602060019160ff8560601c1615158152019301610155565b92602060019160ff8560581c161515815201930161014d565b92602060019160ff8560501c1615158152019301610145565b92602060019160ff8560481c161515815201930161013d565b92602060019160ff8560401c1615158152019301610135565b92602060019160ff8560381c161515815201930161012d565b92602060019160ff8560301c1615158152019301610125565b92602060019160ff8560281c161515815201930161011d565b92602060019160ff85831c1615158152019301610115565b92602060019160ff8560181c161515815201930161010d565b92602060019160ff8560101c1615158152019301610105565b92602060019160ff8560081c16151581520193016100fd565b92602060019160ff8516151581520193016100f5565b916020919350610400600191865460ff81161515825260ff8160081c1615158583015260ff8160101c161515604083015260ff8160181c161515606083015260ff81861c161515608083015260ff8160281c16151560a083015260ff8160301c16151560c083015260ff8160381c16151560e083015260ff8160401c16151561010083015260ff8160481c16151561012083015260ff8160501c16151561014083015260ff8160581c16151561016083015260ff8160601c16151561018083015260ff8160681c1615156101a083015260ff8160701c1615156101c083015260ff8160781c1615156101e083015260ff8160801c16151561020083015260ff8160881c16151561022083015260ff8160901c16151561024083015260ff8160981c16151561026083015260ff8160a01c16151561028083015260ff8160a81c1615156102a083015260ff8160b01c1615156102c083015260ff8160b81c1615156102e083015260ff8160c01c16151561030083015260ff8160c81c16151561032083015260ff8160d01c16151561034083015260ff8160d81c16151561036083015260ff8160e01c16151561038083015260ff8160e81c1615156103a083015260ff8160f01c1615156103c083015260f81c15156103e08201520194019201849293916100dd565b84548352600194850194889450602090930192016100ae565b63029866a760e51b5f5260045ffd5b5f80fd5b60403660031901126107965760043560243561ffff811690818103610796575f83815260016020526040902080546001600160a01b031615610787576004810191825460ff81166108f65760081c61ffff168410156108e757600782019060ff61080482846110f9565b90549060031b1c166108d85761081d81600685016110e4565b90549060031b1c34036108c957610833916110f9565b81549060031b9060ff6001831b921b1916179055815491600161ffff8460181c16019261ffff84116108b55764ffff00000060059460181b169064ffff00000019161790550161088434825461106a565b9055604051913483527fe36869b0903dd397ef4758cb280b9a3f73714302c19133f71862e8cdf6952c2860203394a4005b634e487b7160e01b5f52601160045260245ffd5b63569e8c1160e01b5f5260045ffd5b63f54358f560e01b5f5260045ffd5b631258e44360e01b5f5260045ffd5b62560ff960e81b5f5260045ffd5b34610796576020366003190112610796576004355f90815260016020526040902080546001600160a01b031680156107875760018201549067ffffffffffffffff6002840154169260038101906005600482015491015490604051955f84549461096d866110ac565b90818a5260208a01966001811690815f14610a435750600114610a05575b50509661ffff92916109a382610120999a0383611030565b6040519889978852602088015260408701526101006060870152518094816101008801528787015e5f85850187015260ff811615156080860152600881901c821660a086015260181c1660c084015260e0830152601f01601f19168101030190f35b5f908152602081209092505b818310610a285750508701602001816109a361098b565b6001818b602086819597969754920101520191019190610a11565b60ff191688525050151560051b88016020019050816109a361098b565b34610796576020366003190112610796576004355f81815260016020526040902080546001600160a01b03169190821561078757823303610bd757600481019283549060ff82166108f65767ffffffffffffffff600284015416421061ffff8360081c1661ffff8460181c1614159081610bcf575b50610bc0575f808096928194936001839560ff191617905560058601908154988992555af13d15610bbb573d67ffffffffffffffff8111610ba75760405190610b28601f8201601f191660200183611030565b81525f60203d92013e5b15610b7057546040519283526001600160a01b0316917fcfebdaad8253b338d2ddccd58a24f53d68fa235e2d543f85c5771493412df7cd90602090a3005b60405162461bcd60e51b815260206004820152600f60248201526e1514905394d1915497d19052531151608a1b6044820152606490fd5b634e487b7160e01b5f52604160045260245ffd5b610b32565b632cdefebb60e21b5f5260045ffd5b905086610ad5565b6330cd747160e01b5f5260045ffd5b34610796575f3660031901126107965760205f54604051908152f35b346107965760803660031901126107965760243560043567ffffffffffffffff821161079657366023830112156107965781600401359067ffffffffffffffff8211610796573660248360051b85010111610796576044359067ffffffffffffffff8216809203610796576064359367ffffffffffffffff851161079657366023860112156107965784600401359067ffffffffffffffff82116107965736602483880101116107965784158015611028575b610d615742841115611019579093945f91610ccf87611052565b94610cdd6040519687611030565b878652601f19610cec89611052565b013660208801375f925f988615955b818b1015610d705760248b60051b860101359061ffff8216809203610796578115610d615781610d2a9161106a565b9581890291898304148817156108b5578b610d58918b610d5261271060019604938492611098565b5261106a565b9a019994610cfb565b636edcc52360e01b5f5260045ffd5b878a876127108c9403610d6157828110610fed575b505f5491600183018084116108b5575f55825f52600160205260405f2094336bffffffffffffffffffffffff60a01b875416178655816001870155600286018867ffffffffffffffff1982541617905560038601610de381546110ac565b601f8111610fa8575b50835f601f8211600114610f3a575f91610f2c575b508460011b905f198660031b1c19161790559695965b60048601805462ffff008360081b169062ffff0019161790555f976007600688019701985b8651811015610eb657610e4f8188611098565b518854600160401b811015610ba757806001610e6e92018b558a6110e4565b819291549060031b91821b915f19901b1916179055895490600160401b821015610ba757610ea38260018094018d558c6110f9565b60ff82549160031b1b1916905501610e3c565b50602095509161ffff7ffd96380b6e68317dad7a5f954057792995ea5cdcbbc6c7bc724282ad49fe3cfa9285602488968c6040519687528b870152608060408701528260808701520160a08501375f60a0878501015216606082015260a0813395601f80199101168101030190a3604051908152f35b60249150890101358a610e01565b5f8381526020812092508690601f198216905b8c828210610f8b57505010610f6f575b5050600184811b019055969596610e17565b8901602401355f19600387901b60f8161c191690558980610f5d565b840160240135855560019094019360209384019389935001610f4d565b815f5260205f20601f860160051c81019160208710610fe3575b601f0160051c01905b818110610fd85750610dec565b5f8155600101610fcb565b9091508190610fc2565b82038281116108b5576110099061100385611077565b5161106a565b61101284611077565b5286610d85565b631da7447960e21b5f5260045ffd5b508215610cb5565b90601f8019910116810190811067ffffffffffffffff821117610ba757604052565b67ffffffffffffffff8111610ba75760051b60200190565b919082018092116108b557565b8051156110845760200190565b634e487b7160e01b5f52603260045260245ffd5b80518210156110845760209160051b010190565b90600182811c921680156110da575b60208310146110c657565b634e487b7160e01b5f52602260045260245ffd5b91607f16916110bb565b8054821015611084575f5260205f2001905f90565b9190918054831015611084575f52601f60205f208360051c0192169056fea26469706673582212202ba9ad85305ec292effdcd66fb8a6d6986267ffceca144216c59436439486f0d64736f6c634300081c0033","opcodes":"PUSH1 0x80 DUP1 PUSH1 0x40 MSTORE CALLVALUE PUSH1 0x15 JUMPI PUSH2 0x114D SWAP1 DUP2 PUSH2 0x1A DUP3 CODECOPY RETURN JUMPDEST PUSH0 DUP1 REVERT INVALID PUSH1 0x80 PUSH1 0x40 MSTORE PUSH1 0x4 CALLDATASIZE LT ISZERO PUSH2 0x11 JUMPI PUSH0 DUP1 REVERT JUMPDEST PUSH0 CALLDATALOAD PUSH1 0xE0 SHR DUP1 PUSH4 0x1B2028B4 EQ PUSH2 0xC02 JUMPI DUP1 PUSH4 0x5FCF6E19 EQ PUSH2 0xBE6 JUMPI DUP1 PUSH4 0x8DF82800 EQ PUSH2 0xA60 JUMPI DUP1 PUSH4 0xB1CD06E6 EQ PUSH2 0x904 JUMPI DUP1 PUSH4 0xC3052044 EQ PUSH2 0x79A JUMPI PUSH4 0xDA33F3BB EQ PUSH2 0x5B JUMPI PUSH0 DUP1 REVERT JUMPDEST CALLVALUE PUSH2 0x796 JUMPI PUSH1 0x20 CALLDATASIZE PUSH1 0x3 NOT ADD SLT PUSH2 0x796 JUMPI PUSH1 0x4 CALLDATALOAD PUSH0 SWAP1 DUP2 MSTORE PUSH1 0x1 PUSH1 0x20 MSTORE PUSH1 0x40 SWAP1 KECCAK256 DUP1 SLOAD PUSH1 0x1 PUSH1 0x1 PUSH1 0xA0 SHL SUB AND ISZERO PUSH2 0x787 JUMPI PUSH1 0x7 PUSH1 0x6 DUP3 ADD SWAP2 ADD PUSH1 0x40 MLOAD SWAP2 DUP3 DUP4 PUSH1 0x20 DUP4 SLOAD SWAP3 DUP4 DUP2 MSTORE ADD DUP1 SWAP4 PUSH0 MSTORE PUSH1 0x20 PUSH0 KECCAK256 SWAP3 PUSH0 JUMPDEST DUP2 DUP2 LT PUSH2 0x76E JUMPI POP POP PUSH2 0xC3 SWAP3 POP SUB DUP5 PUSH2 0x1030 JUMP JUMPDEST PUSH1 0x40 MLOAD DUP1 DUP2 PUSH1 0x20 DUP6 SLOAD SWAP3 DUP4 DUP2 MSTORE ADD DUP1 SWAP6 PUSH0 MSTORE PUSH1 0x20 PUSH0 KECCAK256 SWAP3 PUSH0 SWAP1 JUMPDEST DUP1 PUSH1 0x1F DUP4 ADD LT PUSH2 0x586 JUMPI PUSH2 0x1F8 SWAP5 SLOAD SWAP2 DUP2 DUP2 LT PUSH2 0x570 JUMPI JUMPDEST DUP2 DUP2 LT PUSH2 0x557 JUMPI JUMPDEST DUP2 DUP2 LT PUSH2 0x53E JUMPI JUMPDEST DUP2 DUP2 LT PUSH2 0x525 JUMPI JUMPDEST DUP2 DUP2 LT PUSH2 0x50D JUMPI JUMPDEST DUP2 DUP2 LT PUSH2 0x4F4 JUMPI JUMPDEST DUP2 DUP2 LT PUSH2 0x4DB JUMPI JUMPDEST DUP2 DUP2 LT PUSH2 0x4C2 JUMPI JUMPDEST DUP2 DUP2 LT PUSH2 0x4A9 JUMPI JUMPDEST DUP2 DUP2 LT PUSH2 0x490 JUMPI JUMPDEST DUP2 DUP2 LT PUSH2 0x477 JUMPI JUMPDEST DUP2 DUP2 LT PUSH2 0x45E JUMPI JUMPDEST DUP2 DUP2 LT PUSH2 0x445 JUMPI JUMPDEST DUP2 DUP2 LT PUSH2 0x42C JUMPI JUMPDEST DUP2 DUP2 LT PUSH2 0x413 JUMPI JUMPDEST DUP2 DUP2 LT PUSH2 0x3FA JUMPI JUMPDEST DUP2 DUP2 LT PUSH2 0x3E1 JUMPI JUMPDEST DUP2 DUP2 LT PUSH2 0x3C8 JUMPI JUMPDEST DUP2 DUP2 LT PUSH2 0x3AF JUMPI JUMPDEST DUP2 DUP2 LT PUSH2 0x396 JUMPI JUMPDEST DUP2 DUP2 LT PUSH2 0x37D JUMPI JUMPDEST DUP2 DUP2 LT PUSH2 0x364 JUMPI JUMPDEST DUP2 DUP2 LT PUSH2 0x34B JUMPI JUMPDEST DUP2 DUP2 LT PUSH2 0x332 JUMPI JUMPDEST DUP2 DUP2 LT PUSH2 0x319 JUMPI JUMPDEST DUP2 DUP2 LT PUSH2 0x300 JUMPI JUMPDEST DUP2 DUP2 LT PUSH2 0x2E7 JUMPI JUMPDEST DUP2 DUP2 LT PUSH2 0x2CE JUMPI JUMPDEST DUP2 DUP2 LT PUSH2 0x2B5 JUMPI JUMPDEST DUP2 DUP2 LT PUSH2 0x29C JUMPI JUMPDEST DUP2 DUP2 LT PUSH2 0x283 JUMPI JUMPDEST LT PUSH2 0x273 JUMPI JUMPDEST POP SWAP6 SWAP5 SWAP4 SWAP3 SWAP6 SUB DUP6 PUSH2 0x1030 JUMP JUMPDEST PUSH1 0x40 MLOAD SWAP4 DUP5 SWAP4 PUSH1 0x40 DUP6 ADD SWAP1 PUSH1 0x40 DUP7 MSTORE MLOAD DUP1 SWAP2 MSTORE PUSH1 0x60 DUP6 ADD SWAP3 SWAP1 PUSH0 JUMPDEST DUP2 DUP2 LT PUSH2 0x25A JUMPI POP POP POP PUSH1 0x20 SWAP1 DUP5 DUP4 SUB DUP3 DUP7 ADD MSTORE MLOAD SWAP2 DUP3 DUP2 MSTORE ADD SWAP2 SWAP1 PUSH0 JUMPDEST DUP2 DUP2 LT PUSH2 0x23F JUMPI POP POP POP SUB SWAP1 RETURN JUMPDEST DUP3 MLOAD ISZERO ISZERO DUP5 MSTORE DUP6 SWAP5 POP PUSH1 0x20 SWAP4 DUP5 ADD SWAP4 SWAP1 SWAP3 ADD SWAP2 PUSH1 0x1 ADD PUSH2 0x231 JUMP JUMPDEST DUP3 MLOAD DUP6 MSTORE DUP8 SWAP7 POP PUSH1 0x20 SWAP5 DUP6 ADD SWAP5 SWAP1 SWAP3 ADD SWAP2 PUSH1 0x1 ADD PUSH2 0x213 JUMP JUMPDEST PUSH1 0xF8 SHR ISZERO ISZERO DUP2 MSTORE PUSH1 0x20 ADD PUSH0 PUSH2 0x1EB JUMP JUMPDEST SWAP3 PUSH1 0x20 PUSH1 0x1 SWAP2 PUSH1 0xFF DUP6 PUSH1 0xF0 SHR AND ISZERO ISZERO DUP2 MSTORE ADD SWAP4 ADD PUSH2 0x1E5 JUMP JUMPDEST SWAP3 PUSH1 0x20 PUSH1 0x1 SWAP2 PUSH1 0xFF DUP6 PUSH1 0xE8 SHR AND ISZERO ISZERO DUP2 MSTORE ADD SWAP4 ADD PUSH2 0x1DD JUMP JUMPDEST SWAP3 PUSH1 0x20 PUSH1 0x1 SWAP2 PUSH1 0xFF DUP6 PUSH1 0xE0 SHR AND ISZERO ISZERO DUP2 MSTORE ADD SWAP4 ADD PUSH2 0x1D5 JUMP JUMPDEST SWAP3 PUSH1 0x20 PUSH1 0x1 SWAP2 PUSH1 0xFF DUP6 PUSH1 0xD8 SHR AND ISZERO ISZERO DUP2 MSTORE ADD SWAP4 ADD PUSH2 0x1CD JUMP JUMPDEST SWAP3 PUSH1 0x20 PUSH1 0x1 SWAP2 PUSH1 0xFF DUP6 PUSH1 0xD0 SHR AND ISZERO ISZERO DUP2 MSTORE ADD SWAP4 ADD PUSH2 0x1C5 JUMP JUMPDEST SWAP3 PUSH1 0x20 PUSH1 0x1 SWAP2 PUSH1 0xFF DUP6 PUSH1 0xC8 SHR AND ISZERO ISZERO DUP2 MSTORE ADD SWAP4 ADD PUSH2 0x1BD JUMP JUMPDEST SWAP3 PUSH1 0x20 PUSH1 0x1 SWAP2 PUSH1 0xFF DUP6 PUSH1 0xC0 SHR AND ISZERO ISZERO DUP2 MSTORE ADD SWAP4 ADD PUSH2 0x1B5 JUMP JUMPDEST SWAP3 PUSH1 0x20 PUSH1 0x1 SWAP2 PUSH1 0xFF DUP6 PUSH1 0xB8 SHR AND ISZERO ISZERO DUP2 MSTORE ADD SWAP4 ADD PUSH2 0x1AD JUMP JUMPDEST SWAP3 PUSH1 0x20 PUSH1 0x1 SWAP2 PUSH1 0xFF DUP6 PUSH1 0xB0 SHR AND ISZERO ISZERO DUP2 MSTORE ADD SWAP4 ADD PUSH2 0x1A5 JUMP JUMPDEST SWAP3 PUSH1 0x20 PUSH1 0x1 SWAP2 PUSH1 0xFF DUP6 PUSH1 0xA8 SHR AND ISZERO ISZERO DUP2 MSTORE ADD SWAP4 ADD PUSH2 0x19D JUMP JUMPDEST SWAP3 PUSH1 0x20 PUSH1 0x1 SWAP2 PUSH1 0xFF DUP6 PUSH1 0xA0 SHR AND ISZERO ISZERO DUP2 MSTORE ADD SWAP4 ADD PUSH2 0x195 JUMP JUMPDEST SWAP3 PUSH1 0x20 PUSH1 0x1 SWAP2 PUSH1 0xFF DUP6 PUSH1 0x98 SHR AND ISZERO ISZERO DUP2 MSTORE ADD SWAP4 ADD PUSH2 0x18D JUMP JUMPDEST SWAP3 PUSH1 0x20 PUSH1 0x1 SWAP2 PUSH1 0xFF DUP6 PUSH1 0x90 SHR AND ISZERO ISZERO DUP2 MSTORE ADD SWAP4 ADD PUSH2 0x185 JUMP JUMPDEST SWAP3 PUSH1 0x20 PUSH1 0x1 SWAP2 PUSH1 0xFF DUP6 PUSH1 0x88 SHR AND ISZERO ISZERO DUP2 MSTORE ADD SWAP4 ADD PUSH2 0x17D JUMP JUMPDEST SWAP3 PUSH1 0x20 PUSH1 0x1 SWAP2 PUSH1 0xFF DUP6 PUSH1 0x80 SHR AND ISZERO ISZERO DUP2 MSTORE ADD SWAP4 ADD PUSH2 0x175 JUMP JUMPDEST SWAP3 PUSH1 0x20 PUSH1 0x1 SWAP2 PUSH1 0xFF DUP6 PUSH1 0x78 SHR AND ISZERO ISZERO DUP2 MSTORE ADD SWAP4 ADD PUSH2 0x16D JUMP JUMPDEST SWAP3 PUSH1 0x20 PUSH1 0x1 SWAP2 PUSH1 0xFF DUP6 PUSH1 0x70 SHR AND ISZERO ISZERO DUP2 MSTORE ADD SWAP4 ADD PUSH2 0x165 JUMP JUMPDEST SWAP3 PUSH1 0x20 PUSH1 0x1 SWAP2 PUSH1 0xFF DUP6 PUSH1 0x68 SHR AND ISZERO ISZERO DUP2 MSTORE ADD SWAP4 ADD PUSH2 0x15D JUMP JUMPDEST SWAP3 PUSH1 0x20 PUSH1 0x1 SWAP2 PUSH1 0xFF DUP6 PUSH1 0x60 SHR AND ISZERO ISZERO DUP2 MSTORE ADD SWAP4 ADD PUSH2 0x155 JUMP JUMPDEST SWAP3 PUSH1 0x20 PUSH1 0x1 SWAP2 PUSH1 0xFF DUP6 PUSH1 0x58 SHR AND ISZERO ISZERO DUP2 MSTORE ADD SWAP4 ADD PUSH2 0x14D JUMP JUMPDEST SWAP3 PUSH1 0x20 PUSH1 0x1 SWAP2 PUSH1 0xFF DUP6 PUSH1 0x50 SHR AND ISZERO ISZERO DUP2 MSTORE ADD SWAP4 ADD PUSH2 0x145 JUMP JUMPDEST SWAP3 PUSH1 0x20 PUSH1 0x1 SWAP2 PUSH1 0xFF DUP6 PUSH1 0x48 SHR AND ISZERO ISZERO DUP2 MSTORE ADD SWAP4 ADD PUSH2 0x13D JUMP JUMPDEST SWAP3 PUSH1 0x20 PUSH1 0x1 SWAP2 PUSH1 0xFF DUP6 PUSH1 0x40 SHR AND ISZERO ISZERO DUP2 MSTORE ADD SWAP4 ADD PUSH2 0x135 JUMP JUMPDEST SWAP3 PUSH1 0x20 PUSH1 0x1 SWAP2 PUSH1 0xFF DUP6 PUSH1 0x38 SHR AND ISZERO ISZERO DUP2 MSTORE ADD SWAP4 ADD PUSH2 0x12D JUMP JUMPDEST SWAP3 PUSH1 0x20 PUSH1 0x1 SWAP2 PUSH1 0xFF DUP6 PUSH1 0x30 SHR AND ISZERO ISZERO DUP2 MSTORE ADD SWAP4 ADD PUSH2 0x125 JUMP JUMPDEST SWAP3 PUSH1 0x20 PUSH1 0x1 SWAP2 PUSH1 0xFF DUP6 PUSH1 0x28 SHR AND ISZERO ISZERO DUP2 MSTORE ADD SWAP4 ADD PUSH2 0x11D JUMP JUMPDEST SWAP3 PUSH1 0x20 PUSH1 0x1 SWAP2 PUSH1 0xFF DUP6 DUP4 SHR AND ISZERO ISZERO DUP2 MSTORE ADD SWAP4 ADD PUSH2 0x115 JUMP JUMPDEST SWAP3 PUSH1 0x20 PUSH1 0x1 SWAP2 PUSH1 0xFF DUP6 PUSH1 0x18 SHR AND ISZERO ISZERO DUP2 MSTORE ADD SWAP4 ADD PUSH2 0x10D JUMP JUMPDEST SWAP3 PUSH1 0x20 PUSH1 0x1 SWAP2 PUSH1 0xFF DUP6 PUSH1 0x10 SHR AND ISZERO ISZERO DUP2 MSTORE ADD SWAP4 ADD PUSH2 0x105 JUMP JUMPDEST SWAP3 PUSH1 0x20 PUSH1 0x1 SWAP2 PUSH1 0xFF DUP6 PUSH1 0x8 SHR AND ISZERO ISZERO DUP2 MSTORE ADD SWAP4 ADD PUSH2 0xFD JUMP JUMPDEST SWAP3 PUSH1 0x20 PUSH1 0x1 SWAP2 PUSH1 0xFF DUP6 AND ISZERO ISZERO DUP2 MSTORE ADD SWAP4 ADD PUSH2 0xF5 JUMP JUMPDEST SWAP2 PUSH1 0x20 SWAP2 SWAP4 POP PUSH2 0x400 PUSH1 0x1 SWAP2 DUP7 SLOAD PUSH1 0xFF DUP2 AND ISZERO ISZERO DUP3 MSTORE PUSH1 0xFF DUP2 PUSH1 0x8 SHR AND ISZERO ISZERO DUP6 DUP4 ADD MSTORE PUSH1 0xFF DUP2 PUSH1 0x10 SHR AND ISZERO ISZERO PUSH1 0x40 DUP4 ADD MSTORE PUSH1 0xFF DUP2 PUSH1 0x18 SHR AND ISZERO ISZERO PUSH1 0x60 DUP4 ADD MSTORE PUSH1 0xFF DUP2 DUP7 SHR AND ISZERO ISZERO PUSH1 0x80 DUP4 ADD MSTORE PUSH1 0xFF DUP2 PUSH1 0x28 SHR AND ISZERO ISZERO PUSH1 0xA0 DUP4 ADD MSTORE PUSH1 0xFF DUP2 PUSH1 0x30 SHR AND ISZERO ISZERO PUSH1 0xC0 DUP4 ADD MSTORE PUSH1 0xFF DUP2 PUSH1 0x38 SHR AND ISZERO ISZERO PUSH1 0xE0 DUP4 ADD MSTORE PUSH1 0xFF DUP2 PUSH1 0x40 SHR AND ISZERO ISZERO PUSH2 0x100 DUP4 ADD MSTORE PUSH1 0xFF DUP2 PUSH1 0x48 SHR AND ISZERO ISZERO PUSH2 0x120 DUP4 ADD MSTORE PUSH1 0xFF DUP2 PUSH1 0x50 SHR AND ISZERO ISZERO PUSH2 0x140 DUP4 ADD MSTORE PUSH1 0xFF DUP2 PUSH1 0x58 SHR AND ISZERO ISZERO PUSH2 0x160 DUP4 ADD MSTORE PUSH1 0xFF DUP2 PUSH1 0x60 SHR AND ISZERO ISZERO PUSH2 0x180 DUP4 ADD MSTORE PUSH1 0xFF DUP2 PUSH1 0x68 SHR AND ISZERO ISZERO PUSH2 0x1A0 DUP4 ADD MSTORE PUSH1 0xFF DUP2 PUSH1 0x70 SHR AND ISZERO ISZERO PUSH2 0x1C0 DUP4 ADD MSTORE PUSH1 0xFF DUP2 PUSH1 0x78 SHR AND ISZERO ISZERO PUSH2 0x1E0 DUP4 ADD MSTORE PUSH1 0xFF DUP2 PUSH1 0x80 SHR AND ISZERO ISZERO PUSH2 0x200 DUP4 ADD MSTORE PUSH1 0xFF DUP2 PUSH1 0x88 SHR AND ISZERO ISZERO PUSH2 0x220 DUP4 ADD MSTORE PUSH1 0xFF DUP2 PUSH1 0x90 SHR AND ISZERO ISZERO PUSH2 0x240 DUP4 ADD MSTORE PUSH1 0xFF DUP2 PUSH1 0x98 SHR AND ISZERO ISZERO PUSH2 0x260 DUP4 ADD MSTORE PUSH1 0xFF DUP2 PUSH1 0xA0 SHR AND ISZERO ISZERO PUSH2 0x280 DUP4 ADD MSTORE PUSH1 0xFF DUP2 PUSH1 0xA8 SHR AND ISZERO ISZERO PUSH2 0x2A0 DUP4 ADD MSTORE PUSH1 0xFF DUP2 PUSH1 0xB0 SHR AND ISZERO ISZERO PUSH2 0x2C0 DUP4 ADD MSTORE PUSH1 0xFF DUP2 PUSH1 0xB8 SHR AND ISZERO ISZERO PUSH2 0x2E0 DUP4 ADD MSTORE PUSH1 0xFF DUP2 PUSH1 0xC0 SHR AND ISZERO ISZERO PUSH2 0x300 DUP4 ADD MSTORE PUSH1 0xFF DUP2 PUSH1 0xC8 SHR AND ISZERO ISZERO PUSH2 0x320 DUP4 ADD MSTORE PUSH1 0xFF DUP2 PUSH1 0xD0 SHR AND ISZERO ISZERO PUSH2 0x340 DUP4 ADD MSTORE PUSH1 0xFF DUP2 PUSH1 0xD8 SHR AND ISZERO ISZERO PUSH2 0x360 DUP4 ADD MSTORE PUSH1 0xFF DUP2 PUSH1 0xE0 SHR AND ISZERO ISZERO PUSH2 0x380 DUP4 ADD MSTORE PUSH1 0xFF DUP2 PUSH1 0xE8 SHR AND ISZERO ISZERO PUSH2 0x3A0 DUP4 ADD MSTORE PUSH1 0xFF DUP2 PUSH1 0xF0 SHR AND ISZERO ISZERO PUSH2 0x3C0 DUP4 ADD MSTORE PUSH1 0xF8 SHR ISZERO ISZERO PUSH2 0x3E0 DUP3 ADD MSTORE ADD SWAP5 ADD SWAP3 ADD DUP5 SWAP3 SWAP4 SWAP2 PUSH2 0xDD JUMP JUMPDEST DUP5 SLOAD DUP4 MSTORE PUSH1 0x1 SWAP5 DUP6 ADD SWAP5 DUP9 SWAP5 POP PUSH1 0x20 SWAP1 SWAP4 ADD SWAP3 ADD PUSH2 0xAE JUMP JUMPDEST PUSH4 0x29866A7 PUSH1 0xE5 SHL PUSH0 MSTORE PUSH1 0x4 PUSH0 REVERT JUMPDEST PUSH0 DUP1 REVERT JUMPDEST PUSH1 0x40 CALLDATASIZE PUSH1 0x3 NOT ADD SLT PUSH2 0x796 JUMPI PUSH1 0x4 CALLDATALOAD PUSH1 0x24 CALLDATALOAD PUSH2 0xFFFF DUP2 AND SWAP1 DUP2 DUP2 SUB PUSH2 0x796 JUMPI PUSH0 DUP4 DUP2 MSTORE PUSH1 0x1 PUSH1 0x20 MSTORE PUSH1 0x40 SWAP1 KECCAK256 DUP1 SLOAD PUSH1 0x1 PUSH1 0x1 PUSH1 0xA0 SHL SUB AND ISZERO PUSH2 0x787 JUMPI PUSH1 0x4 DUP2 ADD SWAP2 DUP3 SLOAD PUSH1 0xFF DUP2 AND PUSH2 0x8F6 JUMPI PUSH1 0x8 SHR PUSH2 0xFFFF AND DUP5 LT ISZERO PUSH2 0x8E7 JUMPI PUSH1 0x7 DUP3 ADD SWAP1 PUSH1 0xFF PUSH2 0x804 DUP3 DUP5 PUSH2 0x10F9 JUMP JUMPDEST SWAP1 SLOAD SWAP1 PUSH1 0x3 SHL SHR AND PUSH2 0x8D8 JUMPI PUSH2 0x81D DUP2 PUSH1 0x6 DUP6 ADD PUSH2 0x10E4 JUMP JUMPDEST SWAP1 SLOAD SWAP1 PUSH1 0x3 SHL SHR CALLVALUE SUB PUSH2 0x8C9 JUMPI PUSH2 0x833 SWAP2 PUSH2 0x10F9 JUMP JUMPDEST DUP2 SLOAD SWAP1 PUSH1 0x3 SHL SWAP1 PUSH1 0xFF PUSH1 0x1 DUP4 SHL SWAP3 SHL NOT AND OR SWAP1 SSTORE DUP2 SLOAD SWAP2 PUSH1 0x1 PUSH2 0xFFFF DUP5 PUSH1 0x18 SHR AND ADD SWAP3 PUSH2 0xFFFF DUP5 GT PUSH2 0x8B5 JUMPI PUSH5 0xFFFF000000 PUSH1 0x5 SWAP5 PUSH1 0x18 SHL AND SWAP1 PUSH5 0xFFFF000000 NOT AND OR SWAP1 SSTORE ADD PUSH2 0x884 CALLVALUE DUP3 SLOAD PUSH2 0x106A JUMP JUMPDEST SWAP1 SSTORE PUSH1 0x40 MLOAD SWAP2 CALLVALUE DUP4 MSTORE PUSH32 0xE36869B0903DD397EF4758CB280B9A3F73714302C19133F71862E8CDF6952C28 PUSH1 0x20 CALLER SWAP5 LOG4 STOP JUMPDEST PUSH4 0x4E487B71 PUSH1 0xE0 SHL PUSH0 MSTORE PUSH1 0x11 PUSH1 0x4 MSTORE PUSH1 0x24 PUSH0 REVERT JUMPDEST PUSH4 0x569E8C11 PUSH1 0xE0 SHL PUSH0 MSTORE PUSH1 0x4 PUSH0 REVERT JUMPDEST PUSH4 0xF54358F5 PUSH1 0xE0 SHL PUSH0 MSTORE PUSH1 0x4 PUSH0 REVERT JUMPDEST PUSH4 0x1258E443 PUSH1 0xE0 SHL PUSH0 MSTORE PUSH1 0x4 PUSH0 REVERT JUMPDEST PUSH3 0x560FF9 PUSH1 0xE8 SHL PUSH0 MSTORE PUSH1 0x4 PUSH0 REVERT JUMPDEST CALLVALUE PUSH2 0x796 JUMPI PUSH1 0x20 CALLDATASIZE PUSH1 0x3 NOT ADD SLT PUSH2 0x796 JUMPI PUSH1 0x4 CALLDATALOAD PUSH0 SWAP1 DUP2 MSTORE PUSH1 0x1 PUSH1 0x20 MSTORE PUSH1 0x40 SWAP1 KECCAK256 DUP1 SLOAD PUSH1 0x1 PUSH1 0x1 PUSH1 0xA0 SHL SUB AND DUP1 ISZERO PUSH2 0x787 JUMPI PUSH1 0x1 DUP3 ADD SLOAD SWAP1 PUSH8 0xFFFFFFFFFFFFFFFF PUSH1 0x2 DUP5 ADD SLOAD AND SWAP3 PUSH1 0x3 DUP2 ADD SWAP1 PUSH1 0x5 PUSH1 0x4 DUP3 ADD SLOAD SWAP2 ADD SLOAD SWAP1 PUSH1 0x40 MLOAD SWAP6 PUSH0 DUP5 SLOAD SWAP5 PUSH2 0x96D DUP7 PUSH2 0x10AC JUMP JUMPDEST SWAP1 DUP2 DUP11 MSTORE PUSH1 0x20 DUP11 ADD SWAP7 PUSH1 0x1 DUP2 AND SWAP1 DUP2 PUSH0 EQ PUSH2 0xA43 JUMPI POP PUSH1 0x1 EQ PUSH2 0xA05 JUMPI JUMPDEST POP POP SWAP7 PUSH2 0xFFFF SWAP3 SWAP2 PUSH2 0x9A3 DUP3 PUSH2 0x120 SWAP10 SWAP11 SUB DUP4 PUSH2 0x1030 JUMP JUMPDEST PUSH1 0x40 MLOAD SWAP9 DUP10 SWAP8 DUP9 MSTORE PUSH1 0x20 DUP9 ADD MSTORE PUSH1 0x40 DUP8 ADD MSTORE PUSH2 0x100 PUSH1 0x60 DUP8 ADD MSTORE MLOAD DUP1 SWAP5 DUP2 PUSH2 0x100 DUP9 ADD MSTORE DUP8 DUP8 ADD MCOPY PUSH0 DUP6 DUP6 ADD DUP8 ADD MSTORE PUSH1 0xFF DUP2 AND ISZERO ISZERO PUSH1 0x80 DUP7 ADD MSTORE PUSH1 0x8 DUP2 SWAP1 SHR DUP3 AND PUSH1 0xA0 DUP7 ADD MSTORE PUSH1 0x18 SHR AND PUSH1 0xC0 DUP5 ADD MSTORE PUSH1 0xE0 DUP4 ADD MSTORE PUSH1 0x1F ADD PUSH1 0x1F NOT AND DUP2 ADD SUB ADD SWAP1 RETURN JUMPDEST PUSH0 SWAP1 DUP2 MSTORE PUSH1 0x20 DUP2 KECCAK256 SWAP1 SWAP3 POP JUMPDEST DUP2 DUP4 LT PUSH2 0xA28 JUMPI POP POP DUP8 ADD PUSH1 0x20 ADD DUP2 PUSH2 0x9A3 PUSH2 0x98B JUMP JUMPDEST PUSH1 0x1 DUP2 DUP12 PUSH1 0x20 DUP7 DUP2 SWAP6 SWAP8 SWAP7 SWAP8 SLOAD SWAP3 ADD ADD MSTORE ADD SWAP2 ADD SWAP2 SWAP1 PUSH2 0xA11 JUMP JUMPDEST PUSH1 0xFF NOT AND DUP9 MSTORE POP POP ISZERO ISZERO PUSH1 0x5 SHL DUP9 ADD PUSH1 0x20 ADD SWAP1 POP DUP2 PUSH2 0x9A3 PUSH2 0x98B JUMP JUMPDEST CALLVALUE PUSH2 0x796 JUMPI PUSH1 0x20 CALLDATASIZE PUSH1 0x3 NOT ADD SLT PUSH2 0x796 JUMPI PUSH1 0x4 CALLDATALOAD PUSH0 DUP2 DUP2 MSTORE PUSH1 0x1 PUSH1 0x20 MSTORE PUSH1 0x40 SWAP1 KECCAK256 DUP1 SLOAD PUSH1 0x1 PUSH1 0x1 PUSH1 0xA0 SHL SUB AND SWAP2 SWAP1 DUP3 ISZERO PUSH2 0x787 JUMPI DUP3 CALLER SUB PUSH2 0xBD7 JUMPI PUSH1 0x4 DUP2 ADD SWAP3 DUP4 SLOAD SWAP1 PUSH1 0xFF DUP3 AND PUSH2 0x8F6 JUMPI PUSH8 0xFFFFFFFFFFFFFFFF PUSH1 0x2 DUP5 ADD SLOAD AND TIMESTAMP LT PUSH2 0xFFFF DUP4 PUSH1 0x8 SHR AND PUSH2 0xFFFF DUP5 PUSH1 0x18 SHR AND EQ ISZERO SWAP1 DUP2 PUSH2 0xBCF JUMPI JUMPDEST POP PUSH2 0xBC0 JUMPI PUSH0 DUP1 DUP1 SWAP7 SWAP3 DUP2 SWAP5 SWAP4 PUSH1 0x1 DUP4 SWAP6 PUSH1 0xFF NOT AND OR SWAP1 SSTORE PUSH1 0x5 DUP7 ADD SWAP1 DUP2 SLOAD SWAP9 DUP10 SWAP3 SSTORE GAS CALL RETURNDATASIZE ISZERO PUSH2 0xBBB JUMPI RETURNDATASIZE PUSH8 0xFFFFFFFFFFFFFFFF DUP2 GT PUSH2 0xBA7 JUMPI PUSH1 0x40 MLOAD SWAP1 PUSH2 0xB28 PUSH1 0x1F DUP3 ADD PUSH1 0x1F NOT AND PUSH1 0x20 ADD DUP4 PUSH2 0x1030 JUMP JUMPDEST DUP2 MSTORE PUSH0 PUSH1 0x20 RETURNDATASIZE SWAP3 ADD RETURNDATACOPY JUMPDEST ISZERO PUSH2 0xB70 JUMPI SLOAD PUSH1 0x40 MLOAD SWAP3 DUP4 MSTORE PUSH1 0x1 PUSH1 0x1 PUSH1 0xA0 SHL SUB AND SWAP2 PUSH32 0xCFEBDAAD8253B338D2DDCCD58A24F53D68FA235E2D543F85C5771493412DF7CD SWAP1 PUSH1 0x20 SWAP1 LOG3 STOP JUMPDEST PUSH1 0x40 MLOAD PUSH3 0x461BCD PUSH1 0xE5 SHL DUP2 MSTORE PUSH1 0x20 PUSH1 0x4 DUP3 ADD MSTORE PUSH1 0xF PUSH1 0x24 DUP3 ADD MSTORE PUSH15 0x1514905394D1915497D19052531151 PUSH1 0x8A SHL PUSH1 0x44 DUP3 ADD MSTORE PUSH1 0x64 SWAP1 REVERT JUMPDEST PUSH4 0x4E487B71 PUSH1 0xE0 SHL PUSH0 MSTORE PUSH1 0x41 PUSH1 0x4 MSTORE PUSH1 0x24 PUSH0 REVERT JUMPDEST PUSH2 0xB32 JUMP JUMPDEST PUSH4 0x2CDEFEBB PUSH1 0xE2 SHL PUSH0 MSTORE PUSH1 0x4 PUSH0 REVERT JUMPDEST SWAP1 POP DUP7 PUSH2 0xAD5 JUMP JUMPDEST PUSH4 0x30CD7471 PUSH1 0xE0 SHL PUSH0 MSTORE PUSH1 0x4 PUSH0 REVERT JUMPDEST CALLVALUE PUSH2 0x796 JUMPI PUSH0 CALLDATASIZE PUSH1 0x3 NOT ADD SLT PUSH2 0x796 JUMPI PUSH1 0x20 PUSH0 SLOAD PUSH1 0x40 MLOAD SWAP1 DUP2 MSTORE RETURN JUMPDEST CALLVALUE PUSH2 0x796 JUMPI PUSH1 0x80 CALLDATASIZE PUSH1 0x3 NOT ADD SLT PUSH2 0x796 JUMPI PUSH1 0x24 CALLDATALOAD PUSH1 0x4 CALLDATALOAD PUSH8 0xFFFFFFFFFFFFFFFF DUP3 GT PUSH2 0x796 JUMPI CALLDATASIZE PUSH1 0x23 DUP4 ADD SLT ISZERO PUSH2 0x796 JUMPI DUP2 PUSH1 0x4 ADD CALLDATALOAD SWAP1 PUSH8 0xFFFFFFFFFFFFFFFF DUP3 GT PUSH2 0x796 JUMPI CALLDATASIZE PUSH1 0x24 DUP4 PUSH1 0x5 SHL DUP6 ADD ADD GT PUSH2 0x796 JUMPI PUSH1 0x44 CALLDATALOAD SWAP1 PUSH8 0xFFFFFFFFFFFFFFFF DUP3 AND DUP1 SWAP3 SUB PUSH2 0x796 JUMPI PUSH1 0x64 CALLDATALOAD SWAP4 PUSH8 0xFFFFFFFFFFFFFFFF DUP6 GT PUSH2 0x796 JUMPI CALLDATASIZE PUSH1 0x23 DUP7 ADD SLT ISZERO PUSH2 0x796 JUMPI DUP5 PUSH1 0x4 ADD CALLDATALOAD SWAP1 PUSH8 0xFFFFFFFFFFFFFFFF DUP3 GT PUSH2 0x796 JUMPI CALLDATASIZE PUSH1 0x24 DUP4 DUP9 ADD ADD GT PUSH2 0x796 JUMPI DUP5 ISZERO DUP1 ISZERO PUSH2 0x1028 JUMPI JUMPDEST PUSH2 0xD61 JUMPI TIMESTAMP DUP5 GT ISZERO PUSH2 0x1019 JUMPI SWAP1 SWAP4 SWAP5 PUSH0 SWAP2 PUSH2 0xCCF DUP8 PUSH2 0x1052 JUMP JUMPDEST SWAP5 PUSH2 0xCDD PUSH1 0x40 MLOAD SWAP7 DUP8 PUSH2 0x1030 JUMP JUMPDEST DUP8 DUP7 MSTORE PUSH1 0x1F NOT PUSH2 0xCEC DUP10 PUSH2 0x1052 JUMP JUMPDEST ADD CALLDATASIZE PUSH1 0x20 DUP9 ADD CALLDATACOPY PUSH0 SWAP3 PUSH0 SWAP9 DUP7 ISZERO SWAP6 JUMPDEST DUP2 DUP12 LT ISZERO PUSH2 0xD70 JUMPI PUSH1 0x24 DUP12 PUSH1 0x5 SHL DUP7 ADD ADD CALLDATALOAD SWAP1 PUSH2 0xFFFF DUP3 AND DUP1 SWAP3 SUB PUSH2 0x796 JUMPI DUP2 ISZERO PUSH2 0xD61 JUMPI DUP2 PUSH2 0xD2A SWAP2 PUSH2 0x106A JUMP JUMPDEST SWAP6 DUP2 DUP10 MUL SWAP2 DUP10 DUP4 DIV EQ DUP9 OR ISZERO PUSH2 0x8B5 JUMPI DUP12 PUSH2 0xD58 SWAP2 DUP12 PUSH2 0xD52 PUSH2 0x2710 PUSH1 0x1 SWAP7 DIV SWAP4 DUP5 SWAP3 PUSH2 0x1098 JUMP JUMPDEST MSTORE PUSH2 0x106A JUMP JUMPDEST SWAP11 ADD SWAP10 SWAP5 PUSH2 0xCFB JUMP JUMPDEST PUSH4 0x6EDCC523 PUSH1 0xE0 SHL PUSH0 MSTORE PUSH1 0x4 PUSH0 REVERT JUMPDEST DUP8 DUP11 DUP8 PUSH2 0x2710 DUP13 SWAP5 SUB PUSH2 0xD61 JUMPI DUP3 DUP2 LT PUSH2 0xFED JUMPI JUMPDEST POP PUSH0 SLOAD SWAP2 PUSH1 0x1 DUP4 ADD DUP1 DUP5 GT PUSH2 0x8B5 JUMPI PUSH0 SSTORE DUP3 PUSH0 MSTORE PUSH1 0x1 PUSH1 0x20 MSTORE PUSH1 0x40 PUSH0 KECCAK256 SWAP5 CALLER PUSH12 0xFFFFFFFFFFFFFFFFFFFFFFFF PUSH1 0xA0 SHL DUP8 SLOAD AND OR DUP7 SSTORE DUP2 PUSH1 0x1 DUP8 ADD SSTORE PUSH1 0x2 DUP7 ADD DUP9 PUSH8 0xFFFFFFFFFFFFFFFF NOT DUP3 SLOAD AND OR SWAP1 SSTORE PUSH1 0x3 DUP7 ADD PUSH2 0xDE3 DUP2 SLOAD PUSH2 0x10AC JUMP JUMPDEST PUSH1 0x1F DUP2 GT PUSH2 0xFA8 JUMPI JUMPDEST POP DUP4 PUSH0 PUSH1 0x1F DUP3 GT PUSH1 0x1 EQ PUSH2 0xF3A JUMPI PUSH0 SWAP2 PUSH2 0xF2C JUMPI JUMPDEST POP DUP5 PUSH1 0x1 SHL SWAP1 PUSH0 NOT DUP7 PUSH1 0x3 SHL SHR NOT AND OR SWAP1 SSTORE SWAP7 SWAP6 SWAP7 JUMPDEST PUSH1 0x4 DUP7 ADD DUP1 SLOAD PUSH3 0xFFFF00 DUP4 PUSH1 0x8 SHL AND SWAP1 PUSH3 0xFFFF00 NOT AND OR SWAP1 SSTORE PUSH0 SWAP8 PUSH1 0x7 PUSH1 0x6 DUP9 ADD SWAP8 ADD SWAP9 JUMPDEST DUP7 MLOAD DUP2 LT ISZERO PUSH2 0xEB6 JUMPI PUSH2 0xE4F DUP2 DUP9 PUSH2 0x1098 JUMP JUMPDEST MLOAD DUP9 SLOAD PUSH1 0x1 PUSH1 0x40 SHL DUP2 LT ISZERO PUSH2 0xBA7 JUMPI DUP1 PUSH1 0x1 PUSH2 0xE6E SWAP3 ADD DUP12 SSTORE DUP11 PUSH2 0x10E4 JUMP JUMPDEST DUP2 SWAP3 SWAP2 SLOAD SWAP1 PUSH1 0x3 SHL SWAP2 DUP3 SHL SWAP2 PUSH0 NOT SWAP1 SHL NOT AND OR SWAP1 SSTORE DUP10 SLOAD SWAP1 PUSH1 0x1 PUSH1 0x40 SHL DUP3 LT ISZERO PUSH2 0xBA7 JUMPI PUSH2 0xEA3 DUP3 PUSH1 0x1 DUP1 SWAP5 ADD DUP14 SSTORE DUP13 PUSH2 0x10F9 JUMP JUMPDEST PUSH1 0xFF DUP3 SLOAD SWAP2 PUSH1 0x3 SHL SHL NOT AND SWAP1 SSTORE ADD PUSH2 0xE3C JUMP JUMPDEST POP PUSH1 0x20 SWAP6 POP SWAP2 PUSH2 0xFFFF PUSH32 0xFD96380B6E68317DAD7A5F954057792995EA5CDCBBC6C7BC724282AD49FE3CFA SWAP3 DUP6 PUSH1 0x24 DUP9 SWAP7 DUP13 PUSH1 0x40 MLOAD SWAP7 DUP8 MSTORE DUP12 DUP8 ADD MSTORE PUSH1 0x80 PUSH1 0x40 DUP8 ADD MSTORE DUP3 PUSH1 0x80 DUP8 ADD MSTORE ADD PUSH1 0xA0 DUP6 ADD CALLDATACOPY PUSH0 PUSH1 0xA0 DUP8 DUP6 ADD ADD MSTORE AND PUSH1 0x60 DUP3 ADD MSTORE PUSH1 0xA0 DUP2 CALLER SWAP6 PUSH1 0x1F DUP1 NOT SWAP2 ADD AND DUP2 ADD SUB ADD SWAP1 LOG3 PUSH1 0x40 MLOAD SWAP1 DUP2 MSTORE RETURN JUMPDEST PUSH1 0x24 SWAP2 POP DUP10 ADD ADD CALLDATALOAD DUP11 PUSH2 0xE01 JUMP JUMPDEST PUSH0 DUP4 DUP2 MSTORE PUSH1 0x20 DUP2 KECCAK256 SWAP3 POP DUP7 SWAP1 PUSH1 0x1F NOT DUP3 AND SWAP1 JUMPDEST DUP13 DUP3 DUP3 LT PUSH2 0xF8B JUMPI POP POP LT PUSH2 0xF6F JUMPI JUMPDEST POP POP PUSH1 0x1 DUP5 DUP2 SHL ADD SWAP1 SSTORE SWAP7 SWAP6 SWAP7 PUSH2 0xE17 JUMP JUMPDEST DUP10 ADD PUSH1 0x24 ADD CALLDATALOAD PUSH0 NOT PUSH1 0x3 DUP8 SWAP1 SHL PUSH1 0xF8 AND SHR NOT AND SWAP1 SSTORE DUP10 DUP1 PUSH2 0xF5D JUMP JUMPDEST DUP5 ADD PUSH1 0x24 ADD CALLDATALOAD DUP6 SSTORE PUSH1 0x1 SWAP1 SWAP5 ADD SWAP4 PUSH1 0x20 SWAP4 DUP5 ADD SWAP4 DUP10 SWAP4 POP ADD PUSH2 0xF4D JUMP JUMPDEST DUP2 PUSH0 MSTORE PUSH1 0x20 PUSH0 KECCAK256 PUSH1 0x1F DUP7 ADD PUSH1 0x5 SHR DUP2 ADD SWAP2 PUSH1 0x20 DUP8 LT PUSH2 0xFE3 JUMPI JUMPDEST PUSH1 0x1F ADD PUSH1 0x5 SHR ADD SWAP1 JUMPDEST DUP2 DUP2 LT PUSH2 0xFD8 JUMPI POP PUSH2 0xDEC JUMP JUMPDEST PUSH0 DUP2 SSTORE PUSH1 0x1 ADD PUSH2 0xFCB JUMP JUMPDEST SWAP1 SWAP2 POP DUP2 SWAP1 PUSH2 0xFC2 JUMP JUMPDEST DUP3 SUB DUP3 DUP2 GT PUSH2 0x8B5 JUMPI PUSH2 0x1009 SWAP1 PUSH2 0x1003 DUP6 PUSH2 0x1077 JUMP JUMPDEST MLOAD PUSH2 0x106A JUMP JUMPDEST PUSH2 0x1012 DUP5 PUSH2 0x1077 JUMP JUMPDEST MSTORE DUP7 PUSH2 0xD85 JUMP JUMPDEST PUSH4 0x1DA74479 PUSH1 0xE2 SHL PUSH0 MSTORE PUSH1 0x4 PUSH0 REVERT JUMPDEST POP DUP3 ISZERO PUSH2 0xCB5 JUMP JUMPDEST SWAP1 PUSH1 0x1F DUP1 NOT SWAP2 ADD AND DUP2 ADD SWAP1 DUP2 LT PUSH8 0xFFFFFFFFFFFFFFFF DUP3 GT OR PUSH2 0xBA7 JUMPI PUSH1 0x40 MSTORE JUMP JUMPDEST PUSH8 0xFFFFFFFFFFFFFFFF DUP2 GT PUSH2 0xBA7 JUMPI PUSH1 0x5 SHL PUSH1 0x20 ADD SWAP1 JUMP JUMPDEST SWAP2 SWAP1 DUP3 ADD DUP1 SWAP3 GT PUSH2 0x8B5 JUMPI JUMP JUMPDEST DUP1 MLOAD ISZERO PUSH2 0x1084 JUMPI PUSH1 0x20 ADD SWAP1 JUMP JUMPDEST PUSH4 0x4E487B71 PUSH1 0xE0 SHL PUSH0 MSTORE PUSH1 0x32 PUSH1 0x4 MSTORE PUSH1 0x24 PUSH0 REVERT JUMPDEST DUP1 MLOAD DUP3 LT ISZERO PUSH2 0x1084 JUMPI PUSH1 0x20 SWAP2 PUSH1 0x5 SHL ADD ADD SWAP1 JUMP JUMPDEST SWAP1 PUSH1 0x1 DUP3 DUP2 SHR SWAP3 AND DUP1 ISZERO PUSH2 0x10DA JUMPI JUMPDEST PUSH1 0x20 DUP4 LT EQ PUSH2 0x10C6 JUMPI JUMP JUMPDEST PUSH4 0x4E487B71 PUSH1 0xE0 SHL PUSH0 MSTORE PUSH1 0x22 PUSH1 0x4 MSTORE PUSH1 0x24 PUSH0 REVERT JUMPDEST SWAP2 PUSH1 0x7F AND SWAP2 PUSH2 0x10BB JUMP JUMPDEST DUP1 SLOAD DUP3 LT ISZERO PUSH2 0x1084 JUMPI PUSH0 MSTORE PUSH1 0x20 PUSH0 KECCAK256 ADD SWAP1 PUSH0 SWAP1 JUMP JUMPDEST SWAP2 SWAP1 SWAP2 DUP1 SLOAD DUP4 LT ISZERO PUSH2 0x1084 JUMPI PUSH0 MSTORE PUSH1 0x1F PUSH1 0x20 PUSH0 KECCAK256 DUP4 PUSH1 0x5 SHR ADD SWAP3 AND SWAP1 JUMP INVALID LOG2 PUSH5 0x6970667358 0x22 SLT KECCAK256 0x2B 0xA9 0xAD DUP6 ADDRESS MCOPY 0xC2 SWAP3 0xEF REVERT 0xCD PUSH7 0xFB8A6D6986267F 0xFC 0xEC LOG1 PREVRANDAO 0x21 PUSH13 0x59436439486F0D64736F6C6343 STOP ADDMOD SHR STOP CALLER "},"methodIdentifiers":{"createBill(uint256,uint16[],uint64,string)":"1b2028b4","getBill(uint256)":"b1cd06e6","getBillSlots(uint256)":"da33f3bb","joinBill(uint256,uint16)":"c3052044","nextBillId()":"5fcf6e19","settle(uint256)":"8df82800"}}}}}