{
  "_format": "hh3-artifact-1",
  "contractName": "BillSplit",
  "sourceName": "contracts/BillSplit.sol",
  "abi": [
    {
      "inputs": [],
      "name": "AlreadySettled",
      "type": "error"
    },
    {
      "inputs": [],
      "name": "IncorrectPayment",
      "type": "error"
    },
    {
      "inputs": [],
      "name": "InvalidBill",
      "type": "error"
    },
    {
      "inputs": [],
      "name": "InvalidDeadline",
      "type": "error"
    },
    {
      "inputs": [],
      "name": "InvalidShares",
      "type": "error"
    },
    {
      "inputs": [],
      "name": "InvalidSlot",
      "type": "error"
    },
    {
      "inputs": [],
      "name": "NotOwner",
      "type": "error"
    },
    {
      "inputs": [],
      "name": "SettleNotReady",
      "type": "error"
    },
    {
      "inputs": [],
      "name": "SlotAlreadyPaid",
      "type": "error"
    },
    {
      "anonymous": false,
      "inputs": [
        {
          "indexed": true,
          "internalType": "uint256",
          "name": "billId",
          "type": "uint256"
        },
        {
          "indexed": true,
          "internalType": "address",
          "name": "owner",
          "type": "address"
        },
        {
          "indexed": false,
          "internalType": "uint256",
          "name": "totalAmount",
          "type": "uint256"
        },
        {
          "indexed": false,
          "internalType": "uint64",
          "name": "deadline",
          "type": "uint64"
        },
        {
          "indexed": false,
          "internalType": "string",
          "name": "currency",
          "type": "string"
        },
        {
          "indexed": false,
          "internalType": "uint16",
          "name": "payerCount",
          "type": "uint16"
        }
      ],
      "name": "BillCreated",
      "type": "event"
    },
    {
      "anonymous": false,
      "inputs": [
        {
          "indexed": true,
          "internalType": "uint256",
          "name": "billId",
          "type": "uint256"
        },
        {
          "indexed": true,
          "internalType": "uint16",
          "name": "slot",
          "type": "uint16"
        },
        {
          "indexed": true,
          "internalType": "address",
          "name": "payer",
          "type": "address"
        },
        {
          "indexed": false,
          "internalType": "uint256",
          "name": "amount",
          "type": "uint256"
        }
      ],
      "name": "BillJoined",
      "type": "event"
    },
    {
      "anonymous": false,
      "inputs": [
        {
          "indexed": true,
          "internalType": "uint256",
          "name": "billId",
          "type": "uint256"
        },
        {
          "indexed": true,
          "internalType": "address",
          "name": "owner",
          "type": "address"
        },
        {
          "indexed": false,
          "internalType": "uint256",
          "name": "amount",
          "type": "uint256"
        }
      ],
      "name": "BillSettled",
      "type": "event"
    },
    {
      "inputs": [
        {
          "internalType": "uint256",
          "name": "totalAmount",
          "type": "uint256"
        },
        {
          "internalType": "uint16[]",
          "name": "sharesBps",
          "type": "uint16[]"
        },
        {
          "internalType": "uint64",
          "name": "deadline",
          "type": "uint64"
        },
        {
          "internalType": "string",
          "name": "currency",
          "type": "string"
        }
      ],
      "name": "createBill",
      "outputs": [
        {
          "internalType": "uint256",
          "name": "billId",
          "type": "uint256"
        }
      ],
      "stateMutability": "nonpayable",
      "type": "function"
    },
    {
      "inputs": [
        {
          "internalType": "uint256",
          "name": "billId",
          "type": "uint256"
        }
      ],
      "name": "getBill",
      "outputs": [
        {
          "internalType": "address",
          "name": "owner",
          "type": "address"
        },
        {
          "internalType": "uint256",
          "name": "totalAmount",
          "type": "uint256"
        },
        {
          "internalType": "uint64",
          "name": "deadline",
          "type": "uint64"
        },
        {
          "internalType": "string",
          "name": "currency",
          "type": "string"
        },
        {
          "internalType": "bool",
          "name": "settled",
          "type": "bool"
        },
        {
          "internalType": "uint16",
          "name": "payerCount",
          "type": "uint16"
        },
        {
          "internalType": "uint16",
          "name": "paidCount",
          "type": "uint16"
        },
        {
          "internalType": "uint256",
          "name": "collectedAmount",
          "type": "uint256"
        }
      ],
      "stateMutability": "view",
      "type": "function"
    },
    {
      "inputs": [
        {
          "internalType": "uint256",
          "name": "billId",
          "type": "uint256"
        }
      ],
      "name": "getBillSlots",
      "outputs": [
        {
          "internalType": "uint256[]",
          "name": "sharesWei",
          "type": "uint256[]"
        },
        {
          "internalType": "bool[]",
          "name": "paid",
          "type": "bool[]"
        }
      ],
      "stateMutability": "view",
      "type": "function"
    },
    {
      "inputs": [
        {
          "internalType": "uint256",
          "name": "billId",
          "type": "uint256"
        },
        {
          "internalType": "uint16",
          "name": "slot",
          "type": "uint16"
        }
      ],
      "name": "joinBill",
      "outputs": [],
      "stateMutability": "payable",
      "type": "function"
    },
    {
      "inputs": [],
      "name": "nextBillId",
      "outputs": [
        {
          "internalType": "uint256",
          "name": "",
          "type": "uint256"
        }
      ],
      "stateMutability": "view",
      "type": "function"
    },
    {
      "inputs": [
        {
          "internalType": "uint256",
          "name": "billId",
          "type": "uint256"
        }
      ],
      "name": "settle",
      "outputs": [],
      "stateMutability": "nonpayable",
      "type": "function"
    }
  ],
  "bytecode": "0x6080806040523460155761114d908161001a8239f35b5f80fdfe60806040526004361015610011575f80fd5b5f3560e01c80631b2028b414610c025780635fcf6e1914610be65780638df8280014610a60578063b1cd06e614610904578063c30520441461079a5763da33f3bb1461005b575f80fd5b34610796576020366003190112610796576004355f90815260016020526040902080546001600160a01b03161561078757600760068201910160405191828360208354928381520180935f5260205f20925f5b81811061076e5750506100c392500384611030565b604051808160208554928381520180955f5260205f20925f905b80601f830110610586576101f8945491818110610570575b818110610557575b81811061053e575b818110610525575b81811061050d575b8181106104f4575b8181106104db575b8181106104c2575b8181106104a9575b818110610490575b818110610477575b81811061045e575b818110610445575b81811061042c575b818110610413575b8181106103fa575b8181106103e1575b8181106103c8575b8181106103af575b818110610396575b81811061037d575b818110610364575b81811061034b575b818110610332575b818110610319575b818110610300575b8181106102e7575b8181106102ce575b8181106102b5575b81811061029c575b818110610283575b10610273575b5095949392950385611030565b604051938493604085019060408652518091526060850192905f5b81811061025a575050506020908483038286015251918281520191905f5b81811061023f575050500390f35b82511515845285945060209384019390920191600101610231565b8251855287965060209485019490920191600101610213565b60f81c151581526020015f6101eb565b92602060019160ff8560f01c16151581520193016101e5565b92602060019160ff8560e81c16151581520193016101dd565b92602060019160ff8560e01c16151581520193016101d5565b92602060019160ff8560d81c16151581520193016101cd565b92602060019160ff8560d01c16151581520193016101c5565b92602060019160ff8560c81c16151581520193016101bd565b92602060019160ff8560c01c16151581520193016101b5565b92602060019160ff8560b81c16151581520193016101ad565b92602060019160ff8560b01c16151581520193016101a5565b92602060019160ff8560a81c161515815201930161019d565b92602060019160ff8560a01c1615158152019301610195565b92602060019160ff8560981c161515815201930161018d565b92602060019160ff8560901c1615158152019301610185565b92602060019160ff8560881c161515815201930161017d565b92602060019160ff8560801c1615158152019301610175565b92602060019160ff8560781c161515815201930161016d565b92602060019160ff8560701c1615158152019301610165565b92602060019160ff8560681c161515815201930161015d565b92602060019160ff8560601c1615158152019301610155565b92602060019160ff8560581c161515815201930161014d565b92602060019160ff8560501c1615158152019301610145565b92602060019160ff8560481c161515815201930161013d565b92602060019160ff8560401c1615158152019301610135565b92602060019160ff8560381c161515815201930161012d565b92602060019160ff8560301c1615158152019301610125565b92602060019160ff8560281c161515815201930161011d565b92602060019160ff85831c1615158152019301610115565b92602060019160ff8560181c161515815201930161010d565b92602060019160ff8560101c1615158152019301610105565b92602060019160ff8560081c16151581520193016100fd565b92602060019160ff8516151581520193016100f5565b916020919350610400600191865460ff81161515825260ff8160081c1615158583015260ff8160101c161515604083015260ff8160181c161515606083015260ff81861c161515608083015260ff8160281c16151560a083015260ff8160301c16151560c083015260ff8160381c16151560e083015260ff8160401c16151561010083015260ff8160481c16151561012083015260ff8160501c16151561014083015260ff8160581c16151561016083015260ff8160601c16151561018083015260ff8160681c1615156101a083015260ff8160701c1615156101c083015260ff8160781c1615156101e083015260ff8160801c16151561020083015260ff8160881c16151561022083015260ff8160901c16151561024083015260ff8160981c16151561026083015260ff8160a01c16151561028083015260ff8160a81c1615156102a083015260ff8160b01c1615156102c083015260ff8160b81c1615156102e083015260ff8160c01c16151561030083015260ff8160c81c16151561032083015260ff8160d01c16151561034083015260ff8160d81c16151561036083015260ff8160e01c16151561038083015260ff8160e81c1615156103a083015260ff8160f01c1615156103c083015260f81c15156103e08201520194019201849293916100dd565b84548352600194850194889450602090930192016100ae565b63029866a760e51b5f5260045ffd5b5f80fd5b60403660031901126107965760043560243561ffff811690818103610796575f83815260016020526040902080546001600160a01b031615610787576004810191825460ff81166108f65760081c61ffff168410156108e757600782019060ff61080482846110f9565b90549060031b1c166108d85761081d81600685016110e4565b90549060031b1c34036108c957610833916110f9565b81549060031b9060ff6001831b921b1916179055815491600161ffff8460181c16019261ffff84116108b55764ffff00000060059460181b169064ffff00000019161790550161088434825461106a565b9055604051913483527fe36869b0903dd397ef4758cb280b9a3f73714302c19133f71862e8cdf6952c2860203394a4005b634e487b7160e01b5f52601160045260245ffd5b63569e8c1160e01b5f5260045ffd5b63f54358f560e01b5f5260045ffd5b631258e44360e01b5f5260045ffd5b62560ff960e81b5f5260045ffd5b34610796576020366003190112610796576004355f90815260016020526040902080546001600160a01b031680156107875760018201549067ffffffffffffffff6002840154169260038101906005600482015491015490604051955f84549461096d866110ac565b90818a5260208a01966001811690815f14610a435750600114610a05575b50509661ffff92916109a382610120999a0383611030565b6040519889978852602088015260408701526101006060870152518094816101008801528787015e5f85850187015260ff811615156080860152600881901c821660a086015260181c1660c084015260e0830152601f01601f19168101030190f35b5f908152602081209092505b818310610a285750508701602001816109a361098b565b6001818b602086819597969754920101520191019190610a11565b60ff191688525050151560051b88016020019050816109a361098b565b34610796576020366003190112610796576004355f81815260016020526040902080546001600160a01b03169190821561078757823303610bd757600481019283549060ff82166108f65767ffffffffffffffff600284015416421061ffff8360081c1661ffff8460181c1614159081610bcf575b50610bc0575f808096928194936001839560ff191617905560058601908154988992555af13d15610bbb573d67ffffffffffffffff8111610ba75760405190610b28601f8201601f191660200183611030565b81525f60203d92013e5b15610b7057546040519283526001600160a01b0316917fcfebdaad8253b338d2ddccd58a24f53d68fa235e2d543f85c5771493412df7cd90602090a3005b60405162461bcd60e51b815260206004820152600f60248201526e1514905394d1915497d19052531151608a1b6044820152606490fd5b634e487b7160e01b5f52604160045260245ffd5b610b32565b632cdefebb60e21b5f5260045ffd5b905086610ad5565b6330cd747160e01b5f5260045ffd5b34610796575f3660031901126107965760205f54604051908152f35b346107965760803660031901126107965760243560043567ffffffffffffffff821161079657366023830112156107965781600401359067ffffffffffffffff8211610796573660248360051b85010111610796576044359067ffffffffffffffff8216809203610796576064359367ffffffffffffffff851161079657366023860112156107965784600401359067ffffffffffffffff82116107965736602483880101116107965784158015611028575b610d615742841115611019579093945f91610ccf87611052565b94610cdd6040519687611030565b878652601f19610cec89611052565b013660208801375f925f988615955b818b1015610d705760248b60051b860101359061ffff8216809203610796578115610d615781610d2a9161106a565b9581890291898304148817156108b5578b610d58918b610d5261271060019604938492611098565b5261106a565b9a019994610cfb565b636edcc52360e01b5f5260045ffd5b878a876127108c9403610d6157828110610fed575b505f5491600183018084116108b5575f55825f52600160205260405f2094336bffffffffffffffffffffffff60a01b875416178655816001870155600286018867ffffffffffffffff1982541617905560038601610de381546110ac565b601f8111610fa8575b50835f601f8211600114610f3a575f91610f2c575b508460011b905f198660031b1c19161790559695965b60048601805462ffff008360081b169062ffff0019161790555f976007600688019701985b8651811015610eb657610e4f8188611098565b518854600160401b811015610ba757806001610e6e92018b558a6110e4565b819291549060031b91821b915f19901b1916179055895490600160401b821015610ba757610ea38260018094018d558c6110f9565b60ff82549160031b1b1916905501610e3c565b50602095509161ffff7ffd96380b6e68317dad7a5f954057792995ea5cdcbbc6c7bc724282ad49fe3cfa9285602488968c6040519687528b870152608060408701528260808701520160a08501375f60a0878501015216606082015260a0813395601f80199101168101030190a3604051908152f35b60249150890101358a610e01565b5f8381526020812092508690601f198216905b8c828210610f8b57505010610f6f575b5050600184811b019055969596610e17565b8901602401355f19600387901b60f8161c191690558980610f5d565b840160240135855560019094019360209384019389935001610f4d565b815f5260205f20601f860160051c81019160208710610fe3575b601f0160051c01905b818110610fd85750610dec565b5f8155600101610fcb565b9091508190610fc2565b82038281116108b5576110099061100385611077565b5161106a565b61101284611077565b5286610d85565b631da7447960e21b5f5260045ffd5b508215610cb5565b90601f8019910116810190811067ffffffffffffffff821117610ba757604052565b67ffffffffffffffff8111610ba75760051b60200190565b919082018092116108b557565b8051156110845760200190565b634e487b7160e01b5f52603260045260245ffd5b80518210156110845760209160051b010190565b90600182811c921680156110da575b60208310146110c657565b634e487b7160e01b5f52602260045260245ffd5b91607f16916110bb565b8054821015611084575f5260205f2001905f90565b9190918054831015611084575f52601f60205f208360051c0192169056fea26469706673582212202ba9ad85305ec292effdcd66fb8a6d6986267ffceca144216c59436439486f0d64736f6c634300081c0033",
  "linkReferences": {},
  "deployedLinkReferences": {},
  "immutableReferences": {},
  "inputSourceName": "project/contracts/BillSplit.sol",
  "buildInfoId": "solc-0_8_28-87a2f9dc5622b33ed63f8502b79f4cca8d70eebf"
}